:020000022000DC
:106000000000012079630200616302006363020003
:10601000656302006763020069630200000000001C
:106020000000000000000000000000006B630200A0
:106030006D630200000000006F63020071630200E4
:10604000A59B020073630200E99F02007DA9020084
:1060500073630200736302006D9E0200ADB802001C
:1060600073630200736302007363020073630200D0
:1060700073630200736302007363020073630200C0
:106080007363020095710200736302007363020080
:106090003172020073630200A50203007363020001
:1060A0007363020073630200736302007363020090
:1060B0007363020073630200000000000000000030
:1060C0007363020073630200736302007363020070
:1060D0007363020073630200736302000000000038
:1060E00000000000000000000000000000000000B0
:1060F00000000000000000000000000000000000A0
:10610000000000000000000000000000000000008F
:10611000000000000000000000000000000000007F
:10612000000000000000000000000000000000006F
:10613000000000000000000000000000000000005F
:10614000000000000000000000000000000000004F
:10615000000000000000000000000000000000003F
:10616000000000000000000000000000000000002F
:10617000000000000000000000000000000000001F
:10618000000000000000000000000000000000000F
:1061900000000000000000000000000000000000FF
:1061A00000000000000000000000000000000000EF
:1061B00000000000000000000000000000000000DF
:1061C00000000000000000000000000000000000CF
:1061D00000000000000000000000000000000000BF
:1061E00000000000000000000000000000000000AF
:1061F000000000000000000000000000000000009F
:10620000364937480A1A02D0072291438D4635494C
:1062100035480A1A06D00722914381F309880222E1
:1062200082F3148831483249324A00F045F8324846
:106230003249334A00F040F832483349334A00F0DB
:106240003BF833483349344A00F036F83348344990
:10625000344A00F031F834483449354A00F02CF81B
:1062600034483549354A00F027F835483549002289
:1062700000F02DF834483549002200F028F8344861
:106280003449091A082903DB002202600430016046
:10629000314A90471F482049884205D0026804309F
:1062A00003B4904703BCF7E700208646EC46002085
:1062B00000212A4A9047FEE7884207D0521A05D0AB
:1062C000037801300B700131013AF9D170478842EF
:1062D00002D002700130FAE7704700000000012090
:1062E00000E000200000012000000120F02E03004B
:1062F0004422002098220020D8630200D8630200C4
:106300004A080300F02E030044220020442200200B
:10631000CC090300CC090300CC090300CC0903001D
:10632000CC090300CC090300CC090300CC0903000D
:10633000F02E0300442F0300982200209822002012
:106340009822002070340020703400207034002027
:106350007034002070540020A163020065B5020073
:10636000FEE7FEE7FEE7FEE7FEE7FEE7FEE7FEE705
:10637000FEE7FEE7704700BF1048804710484FF027
:106380000701884385460F4880470F48016841F45C
:1063900070010160BFF34F8FBFF36F8FFFF730BF06
:1063A0000A480B490B4A884207D0521A05D0037895
:1063B00001300B700131013AF9D170477563020069
:1063C00000000120BD95020088ED00E0B80903003F
:0863D0003022002044220020CD
:1063D800F0B595B01C46164608460D4602F0E4FE98
:1063E8001A9B0D93CDE9086400242346082205A9C9
:1063F80028460A948DF82C400C9402F0F3FE079B73
:106408000293BDF81830ADF80C30BDF81A30ADF86D
:106418000E309DF814308DF8114003F00302012A64
:106428001DD1BDF81440059EC3F3C203C4F3831401
:106438008DF81030A20008230EA9284602F0D2FEDB
:10644800C6F3952608AB0093224602AB0EA9304648
:1064580000F0F0FB284602F0ABFE15B0F0BD022AB2
:10646800F8D1BDF81640C3F3C203A4098DF8103063
:106478000827082C264628BF08263B4632460EA980
:10648800284602F0AFFEA41B08AB02AA31460EA8AC
:10649800374400F033FC002CEBD1DBE7014B012241
:1064A8001A707047D92200207047000070B50E4D51
:1064B80006460FCD88B06C460FC495E80F0084E8F7
:1064C8000F0008A9002E4FF00603084A41F8203DA6
:1064D80008BF0022064803F0F7FA08B100F0A8FD4B
:1064E800044B1E7008B070BDCC090300A5640200FF
:1064F800442200209822002007B5044B0093044A48
:106508004023FFF765FF03B05DF804FB1D6502003B
:106518009922002038B50D4B0D4D002018700D48FC
:1065280004782D5DD2B21C4665B1043004F080F9C0
:1065380008B100F07DFD084B1A7812B12378002BC2
:10654800FBD038BD0C3003F077FFF1E7D9220020EB
:10655800D82B0020442200209822002008B50848A3
:10656800084A0378D35C3BB1043004F0FDF80020FE
:10657800BDE80840FFF79ABF0C3003F0F9FEF6E7D4
:1065880044220020D82B00200120FFF78FBF0000F5
:1065980008B5FFF7F9FF0421034800F0B9FA034BE7
:1065A80001225A7108BD00BFA80903005822002023
:1065B800037813F0040216D003F00303012B03D071
:1065C800022B09D0012070470A6800880232C0F304
:1065D800831002440A60F5E70B684288023303EB34
:1065E80092130B60EEE71046704700002DE9F04F5C
:1065F80089B00546861C08A8484C019200230F461E
:1066080000F8113D00F0FCFF23683B60D4E901234A
:106618001344226801339B1A04F21C4704F5836A69
:1066280004F21448B3421AD3019A0023002A6DD009
:10663800012262F3010343F0040365F3891321681F
:10664800A2689DF80F000A4003320E4444F8223035
:10665800266000F0F9FF012009B0BDE8F08F0121A4
:10666800384602F01BF8504602F031F8404602F076
:106678002EF80DF120096068D4F808B049F8100D1B
:1066880000EA0B00033004EB80004946FFF790FF57
:10669800049BB0B90BEA030204EB8202D1680591AE
:1066A8009A1C013303EA0B0B04EB8B0C01F0030378
:1066B800012B0492DCF80CB020D0022B04D08346C6
:1066C8000BE00BEA0300DDE7BDF816309B09033346
:1066D8004FEA1B4B02EB93030493404601F0FAFF89
:1066E80008B1049B63605946384601F0D7FFD4E9E6
:1066F80001231344226801339B1A93E7BDF8143031
:10670800C3F383134FEA1B4B1344E5E7022262F3FA
:10671800010343F0040365F39F5390E7AC23002083
:106728000B4B0C48FF2210B59A600022C3F81824BE
:10673800C3E90022C3F8142483F8202402F0EDFCF6
:10674800044610B9044802F06FFD204610BD00BF92
:10675800AC230020D40803000C0A030030B50A4C0F
:1067680071B10A4A0A49121BD20800239A4201D180
:10677800002030BD31F82350854202D00133F5E7BF
:10678800034654F83300F4E7E8080300A8090300B7
:1067980044220020094B013903EBC000032909D822
:1067A800DFE801F00A020406042070470079704708
:1067B800407970470020704702207047E8080300BE
:1067C800034BD3E90030C31A58425841704700BF01
:1067D800AC2300202DE9F04387B0FFF7F1FF064610
:1067E800002840F0FC807F4DC5F81804BFF34F8F98
:1067F8006868AC6806AF47F8100D2040033005EB19
:1068080080003946FFF7D4FE029B18B1D5F818244A
:10681800002A5FD004EA0302991C013305EB8202C7
:10682800234005EB8303D268DB68049302F003037B
:10683800022B0392029162D1BDF80E306A484FEAEA
:106848009318B8F1500FC14628BF4FF0500969F3AB
:106858008F1309F10801ADF80E3002F076FC0746F7
:10686800002800F0A78002F09FFC03A9002308225B
:10687800384602F0ACFC029924EA01060136B6005B
:10688800B14535D95FFA89F97EB3F6B2A9EB0609A5
:10689800214003315FFA89F4B146544E05EB81017A
:1068A80008234A46384602F092FC36B109F108033B
:1068B80022463146384602F08AFC029B08F103085A
:1068C80003EB98030293D5F81834002B4BD1D5F875
:1068D80010445BE02A689A4204D86A60304607B0E0
:1068E800BDE8F08304EA030088E740493446D7E767
:1068F8002140033108234A4605EB8101DAE7012BE1
:1069080058D1BDF80C303848C3F38311062928BF85
:10691800062161F3891302318900ADF80C3002F0C9
:1069280014FC0746002845D002F03EFC002308224C
:1069380003A9384602F04BFC0026BDF80C20C2F330
:106948008312B31C96424FEA8303BCD202994A1CB5
:1069580021400331029205EB81010422384602F0FE
:1069680036FC0136E9E7384602F022FCFFF728FF3B
:1069780080F00100C6B2B1E7E3685B7923B1236810
:1069880039461B6820469847E3681C68002CF3D1F9
:10699800384602F00DFC06A800F8114D00F030FE54
:1069A800D5F818340BB9029B6B609DF8070000F00E
:1069B8004BFEDBE7D5F8104454B90D4B0D480E4992
:1069C800C01AC008000440F0020000F06FF8CDE7DC
:1069D800236820469B689847E3681C68ECE7002614
:1069E8007CE700BFAC230020D4080300B8230020B4
:1069F800E808030020090300180A03002DE9F74FEF
:106A0800284C80460F46924601A9012218469B460B
:106A1800D4F80890FFF7EAFD88B3019D0026A91C69
:106A28005E4506EB010234D100211F4801F0F5FD57
:106A380080F310006A1C02EA090204EB82020004D7
:106A480005EA0903033340EA1840D06014F823200C
:106A580068F3C50204F8232034F8232066F389126A
:106A680024F8232054F82320012167F39F2244F8B7
:106A7800232061F301026FF3820204F8232094F8C3
:106A880020341BB1FFF7A6FE0028FBD103B0BDE8F8
:106A9800F08F09EA020204EB82025AF82630D3602A
:106AA8000136BDE7AC230020C827002000231A4682
:106AB800FFF7A4BF13B502AC012344F8042D224606
:106AC800FFF79CFF02B010BD07B5CDE900230223F4
:106AD8006A46FFF793FF03B05DF804FB1FB5CDE9E5
:106AE8000123069B039301AA0323FFF787FF05B041
:106AF8005DF804FB1FB5CDE90023069B0293079BB5
:106B080003936A460423FFF779FF05B05DF804FB99
:106B180030B50F49D1F81024002314463CB9C46895
:106B2800237152B9C1F810042260184630BDE468D8
:106B380025799D4206D02468F0E7D2681168216063
:106B48001060F2E701330A2BE7D14FF0FF33ECE78F
:106B5800AC230020094A38B50123D2F8104482F842
:106B680020341D4604B938BDE3685D7123682046AA
:106B78005B689847E3681C68F4E700BFAC23002013
:106B8800037A052B10B50C460FD0437A23B1084A77
:106B98000849204601F0FFFD0749204601F0FBFDAA
:106BA8002046BDE8104001F0EBBD002AF8D0F3E71D
:106BB800630A0300B7220300C4120300C38873B535
:106BC80004460D4633B1144A00921449144A284623
:106BD80001F0E1FD217A05291CD0637A4BB1A08828
:106BE800FFF7D8FD0F4B104953F82020284601F035
:106BF800D2FD227A0D4BA08853F822600021FFF7BE
:106C0800ADFD0B4903463246284602B0BDE8704048
:106C180001F0C1BD02B070BD630A0300700A030031
:106C2800680A0300300A0300B7220300940A03002D
:106C3800880A03002DE9F04385B01F460C9D002308
:106C480006460C46904695F80C902B732946384614
:106C5800FFF7B4FFB8F1060F09D8DFE808F004120F
:106C6800181F283340003146284601F094FD0022C1
:106C780029463846FFF784FF85F80C9005B0BDE833
:106C8800F08322683146284601F085FDEFE7D4E914
:106C980000233146284601F07EFDE8E7A36800930B
:106CA8003146D4E90023284601F075FDDFE7E368A3
:106CB8000193A36800933146D4E90023284601F0E4
:106CC8006AFDD4E723690293E3680193A3680093FC
:106CD8003146D4E90023284601F05DFDC7E7636922
:106CE800039323690293E3680193A36800933146F1
:106CF800D4E90023284601F04EFDB8E708292DE91C
:106D0800F84F80460E4617461C463AD8002593F899
:106D18000C901D7319461046FFF750FFDFF884A04A
:106D2800DFF884B0AE422ED918F80520594620461F
:106D380001F031FD0135082DF4D11849DFF86CB0A8
:106D4800204601F028FD4FF0000A564520D918F8D2
:106D58000A507E2D03D8284609F0ACFC00B92E2530
:106D68002A465946204601F016FD0AF1010ABAF1F1
:106D7800080FEAD1012221463846FFF701FF84F8BF
:106D88000C90BDE8F88F5146204601F004FDD1E78C
:106D98000349204601F0FFFCE7E700BF5E0A030055
:106DA8005C0A03005A0A0300540A0300600A03003D
:106DB8002DE9F04F3B4F89B000263B4B1B78F5B2CD
:106DC800AB4202D809B0BDE8F08F384B196811F80A
:106DD80035000124A0F12002C0F1200304FA02F9D1
:106DE80024FA03F349EA0309D7E9002304FA00F86F
:106DF800CDE9042302EA080203EA0903134301EB7D
:106E0800C50B4CD0DDE9042322EA080223EA090372
:106E1800C7E90023079103F01BF80799844611F886
:106E28003500A0F12002C0F1200324FA03F304FA8C
:106E380002F21A4304FA00F300931D4B0192DDE9B4
:106E48000045D3E9002314401D4022462B465FFA33
:106E58008CF40025CDE90445049CA0F12005AC4044
:106E68000394049CC0F1200124FA01F1039C0C4313
:106E78000499039481400291DDE90245AB4208BFC1
:106E8800A2420CD19BF801104B1E59425941A1EB6B
:106E98000C02DBF804305142514103B198470136E6
:106EA8008BE700BF9828002068280020A028002031
:106EB800902800202DE9F84F0646244800F090FB62
:106EC800002841D10123A6F12001C6F1200203FACE
:106ED80001FB23FA02F203FA06FA1D4BD3E900017B
:106EE8004BEA020B00EA0A0801EA0B0958EA090210
:106EF8001F4623D1304602F0ABFF164BB8B1D3E999
:106F0800000140EA0A0441EA0B05C3E90045D7E954
:106F180000234BEA0305104B0C4819684AEA02049F
:106F2800C7E900450022BDE8F84F00F015BBD3E9DA
:106F3800000120EA0A0421EA0B05E6E720EA0A0430
:106F480021EA0B05C3E90045BDE8F88F7028002049
:106F580098280020902800206C280020042A2DE979
:106F6800F34105460C4616463AD902F0A9FED8B1B7
:106F78001C4B1D491D601D4BDFF884801C701C4B89
:106F880000221E600023C1E900231A49C1E9002339
:106F9800013CE4B200260327FF2C0CD1164A1748FF
:106FA800002100F0C7FA03E002F054FE0028DFD009
:106FB80002B0BDE8F08123B205EBC30201A99278C3
:106FC8008DF8052015F833008DF8066042468DF8D7
:106FD800047002F07FFE013CE4B20028DCD0E7E751
:106FE8000720E5E7A0280020902800206828002036
:106FF8006C28002098280020B96D0200F40A0300CC
:10700800BD6E020070B5084D084E00242B789C42D6
:1070180001D3002070BD3368012113F8340002F059
:10702800D1FE0134F2E700BF68280020A028002024
:107038001FB50021039001AA44F20100CDE9011116
:1070480000F004F805B05DF804FB000010B572B656
:10705800FFF780FDFFF7BEFB0028FBD1104B114C5A
:107068001149E41AE408240444F00100FFF71EFD66
:107078000E4B1B68DB0700D500BE0D4944F002002B
:10708800FFF714FDBFF34F8F0A490B4BCA6802F490
:10709800E0621343CB60BFF34F8F00BFFDE700BF33
:1070A800E808030020090300F80A0300F0ED00E0F7
:1070B800040B030000ED00E00400FA05094A5378C8
:1070C80091780133DBB2994208BF002311789942C5
:1070D8001FBF03705078182303FB002014BF04302F
:1070E80000207047A428002073B5054602A8002494
:1070F80000F8014D0E4600F083FA0DF10600FFF787
:10710800DDFF90B106700A4B9DF8062045605A7065
:107118009DF8070000F098FA24B9064B4FF4801246
:10712800C3F80021204602B070BD0424F0E700BF78
:10713800A428002000E100E0024B4FF43C6043F03B
:1071480001031847200B030038B50C4B0C4C4FF4C7
:107158000032C3F8802001254FF48033C4F8483347
:10716800C4F808336560FFF7E7FF064BA560002405
:107178001C60FFF7E1FF044B1C7038BD00E100E024
:1071880000100140C0290020B1290020F8B51F4B8C
:107198001F491B680025C1F84051C1F84451C1F886
:1071A8004851C1F84C51C1F80051C1F804514BB3D2
:1071B800D1F8044517490968641A24F07F442F461A
:1071C8001A68A24209D8A41A15441A7CDE691AB1B1
:1071D8001F74D3E905209047AEB90F4B0F4A1978B1
:1071E80013788B4205D10133DBB2022B08BF002391
:1071F800137012780A4B43F822500A4B4FF480124E
:10720800C3F80021F8BD3346DAE700BFC4290020DF
:1072180000100140C0290020BC290020BD29002001
:10722800B429002000E100E02DE9F74F9E4A9F496C
:10723800137809789E4D99423CD00133DBB2022B7A
:1072480008BF002313709B4912789B4B0F6853F8B3
:1072580022003B1823F07F4300220B602B68164660
:107268001446944613B942B12B6006E0196881426E
:107278000ED902B12B60091A19604FF001082B686A
:10728800DFF83CA200930027BEB9DFF83CB260E00B
:10729800401A0C44D968C3F800C0D3F81CE031B1D7
:1072A8003A1922F07F42C3E90121DE611E4601221C
:1072B8007346D7E70026B046E1E73446F6697D4ACB
:1072C80063681268DFF804C2A068991A21F07F4148
:1072D800614500F2A58001442160012222742A68D8
:1072E8000023C4E90133E361002A40F0A2802C6046
:1072F800CAE75A1C9BF80210D2B291428BF80020C0
:1073080004BF00228BF80020182202FB03B32A686E
:1073180019799C68022974D003297ED0012918D1D3
:10732800217CB1B9DA6862601A69A2605A699B69FE
:10733800A361624BE2601B78002BC0D06160BEE79E
:107348009C4200F093809946DB69002BF8D100231A
:1073580023749BF800309BF801209A42C9D12B680E
:107368002FB9009A934202D1B8F1000F43D0002BF5
:1073780079D0D3F800A0524D4E4BD5F804751C684F
:10738800DFF84C813E1B98F8003026F07F46033624
:107398009BB94FF48033C5F84433C5F80433494BDF
:1073A8004FF400324FF00109C3F880211A60C5F884
:1073B8000090FFF7C1FE88F80090B2452CBF5444F6
:1073C800A41924F07F44C5F84045D5F80435DB1BE3
:1073D80023F07F43E41B033324F07F44A3420AD9FC
:1073E800D5F80435C5F84035FFF7A6FE354B4FF400
:1073F8000032C3F80021314B00221A7003B0BDE8F7
:10740800F08F13469146A0E71174D2690123002A30
:10741800FAD1002B9DD02A609BE700231946F6E796
:10742800D31A23F07F43834234BFC31A0023236057
:1074380053E721681368994213D8591A1160E26119
:1074480055E7091AD8691A4638B1034618688842B8
:10745800F7D3401A1860184613462160E061DC61D2
:1074680012E71346F2E7FFF76FFEC4E74C450DD16C
:10747800D3692B6053B90F4801920121CAF808104B
:1074880003600E4B1970FFF757FE019AE1692368F4
:10749800C9F81C1011B1086803440B602B689A42A4
:1074A80018BF012753E700BFBC290020BD290020D1
:1074B800C4290020C0290020B4290020B0290020B8
:1074C8000010014000E100E0A4280020FEFF7F003A
:1074D800B129002008B5FFF737FE104B00200B221A
:1074E80018809A700E4B18600E4B18700E4B18705F
:1074F8000E4B4FF48012C021C3F8802183F8141377
:107508001A6002F18042A2F56F22C2F8080583F8DA
:107518001113074BD2F804251A6008BDA4280020CF
:10752800C4290020BC290020BD29002000E100E07A
:10753800C0290020074B9B784BB132B128B10368B2
:10754800187C20B959745A61704707207047082081
:10755800704700BFA42800202DE9F7431D4FBB78D2
:1075680005460E4690469BB390B304292ED943692D
:1075780073B3437C02A80024012B00F8014D0CBF13
:107588008946A14600F03CF80DF10600FFF796FD8C
:10759800D0B101230370104B4560D3F80435C0E91E
:1075A8000498C0E902369DF806307B709DF8070004
:1075B80000F04AF824B9094B4FF48012C3F80021AF
:1075C800204603B0BDE8F0830424EFE70724F7E77B
:1075D8000824F5E7A42800200010014000E100E09D
:1075E800064A92783AB130B1426922B10022027457
:1075F8000221FFF779BD0820704700BFA4280020AA
:1076080070B5EFF3108672B60C4A946801239CB9E2
:1076180093600B4B0B4DD3F8801029401160C3F8D1
:107628008050D3F8841051604FF0FF32C3F88420A3
:10763800047006B962B670BD0370FAE7C829002065
:1076480000E100E0FC06FFBD084B9A6810B55AB18E
:1076580050B9EFF3108172B6054A1C6814605C6873
:107668005460986001B962B610BD00BFC8290020F7
:1076780000E100E070B5064E0546002456F82430B7
:107688000BB1284698470134042CF7D170BD00BFD0
:10769800E0290020033080B240F2FD33984230B533
:1076A8001FD8124B1A783AB91C895D892C440444B6
:1076B800A4B2B4F5806F0AD31A7DA2B99A8BDC8B79
:1076C8002244024492B2B2F5806F0CD201220A80A1
:1076D8001446142202FB04335A89104458810020AE
:1076E80030BD0920FCE70720FAE700BF142A002074
:1076F8000B4A0C4B5188142000FB0131CB6833B97D
:107708000420496810700122074801F0D1BA052306
:107718000649137002238B80012200230968F3E7CE
:10772800F8290020142A002030220020DC2A00201A
:1077380007B5002305490093054A09680548082349
:1077480001F020FA03B05DF804FB00BFDC2A00203A
:10775800340B03003022002007B5002300930146B4
:107768000823034A034801F00DFA03B05DF804FB4F
:107778002C0B03003022002013B500230C46009385
:1077880001460423074A084801F0FCF938B9074BB9
:10779800142202FB04340123237402B010BD0E200E
:1077A800FBE700BF280B030030220020142A00202A
:1077B80037B50A480A4B42689C88196853880325DC
:1077C800033305709BB2002000909B0001EB8401FD
:1077D800044801F0D7F903B030BD00BFF8290020F4
:1077E800DC2A00203022002010B50146044800F0B1
:1077F80048FE1C220446002108F0C0FF204610BDA8
:10780800C82A00204388033300EB8303994209D335
:1078180082884FF6FF739A4206D00088B0FA80F04B
:107828004009704702207047012070472DE9F8434E
:107838000223DFF860800B800D46174600F580565E
:1078480000F108044FF00109B4420FD22368013354
:107858000CD031462046FFF7D5FF48B10FB187F865
:10786800009002280BD14FF480632B80BDE8F88389
:10787800A368D8F80020934201D9C8F800302B88B3
:107888006288033313442B806388033304EB830437
:10789800DAE700BF0C2A0020144A142303FB002057
:1078A80070B50B6844680D4604F580569BB15C883A
:1078B800033403EB8404B4420BD22368013308D0A9
:1078C80031462046FFF79EFF012809D005D302283C
:1078D800F1D1002003E00834EDE72C60012070BDF1
:1078E8006388033304EB8304E5E700BF142A002010
:1078F800436873B505460C466BB3254AD1688B427D
:1079080029D31269934226D813F0030223D12149BF
:107918000089098988421ED12868996888421AD145
:107928001D494868834203D900F5805083420ED32D
:107938008A6993420DD902F58052934209D20123F4
:1079480023800020B0FA80F0400902B070BD1346D1
:10795800F6E70A20F6E7002323801E462388012B3A
:1079680001D90020F1E7019601A92088FFF794FFCB
:1079780018B9238801332380F0E7019B2A689968A6
:107988009142F1D16B60034B1B892B81DDE700BF6E
:1079980030220020F8290020142A00202DE9F8437D
:1079A8001C461E4B1B7806460F461546002B30D04A
:1079B800002A30D07CB3DFF86C804FF01409A3881C
:1079C800012B01D90A201AE009FB03F318F8033048
:1079D800BBB1A3880133A380F1E723681EB199885E
:1079E800328891420DD11FB119883A88914208D145
:1079F8009A68C5E900230A4B1B892B810020BDE842
:107A0800F8832146A088FFF747FF0028E5D12060CA
:107A1800DFE70220F3E70520F1E700BFF0290020A7
:107A2800F8290020142A002008B5074B191D58888A
:107A3800FFF732FF18B1BDE80840FFF7B9BEBDE84F
:107A48000840FFF755BE00BFF82900202DE9F04F88
:107A5800A04FDFF8A49289B00646B8463B6823B920
:107A680049469D4800F047FD3860D8F8005029780D
:107A78004B1E052B00F21281DFE813F0060076009A
:107A88007600060106015D0126B1944B00225A607A
:107A9800012424E02B79032B1DD8DFE803F015021D
:107AA800424D8F490B78022B084631D00B7D022BB3
:107AB8004FF001032ED114225343C2180020C8549A
:107AC8005068FFF749FE03E001232B71FFF730FEF2
:107AD800002800F0D380814B00225A600E24142223
:107AE800002103A808F04AFE41F61D539C4208BF36
:107AF8000024D8F8003004941A78023A042A00F2D4
:107B0800D381DFE812F0B401C001E301EB01F20117
:107B18000023D0E7714A13700023536041F61D54C7
:107B2800DDE770497048002302222B718A80012208
:107B3800096801F0BDF8CBE76A4C00262E71206871
:107B4800674DFFF709FE694BD4F800C05A88142323
:107B58005343EA18EE5451682160A188C2F804C062
:107B680011810222A280B3E7B5F814A0AA7DDFF83C
:107B780070B1AEB1022AEB8806D9142101FB0AB113
:107B8800DA1C088902440A81142202FB0ABAC3F5E6
:107B98007F43BAF80A20FD331344AAF80A3077E77E
:107BA800142303FB0AB318895C6804EB8004062AD3
:107BB80005D8DFE802F0264C34421C5866000F2432
:107BC800AA7DEB88022A06D9142101FB0AB1DA1C26
:107BD800088902440A81142202FB0ABAC3F57F43CA
:107BE800BAF80A20FD331344AAF80A3077E7404868
:107BF800404900234360AB690360FFF779FE002822
:107C08005AD00223AB75002300930423EA182146B7
:107C1800354800F0B7FF002830D00E24D0E72B6994
:107C2800002B0CBF01230323AB750023009305F140
:107C38000C02042304F10801EAE70123AB750022D2
:107C4800EB8800929B002A6904F10C01E0E7032904
:107C580014BF06230523AB7500230093042305F105
:107C68000802E118D4E70623AB75224B1988204B8C
:107C78005868FFF781FD04460028A1D109B0BDE886
:107C8800F08F41F61D549BE7002E7FF401AF2B794E
:107C9800012B33D004D3022B3FF440AF0F241EE74F
:107CA80002232B710DF10A01EB68039303A8CDE9B8
:107CB8000466FFF71DFE08B90A2410E70498BDF80A
:107CC8000A108388EB8003882B81FFF755FD044653
:107CD80027E000BF102A0020C82A0020F029002031
:107CE800142A0020DC2A002030220020F829002055
:107CF800D4290020E82A0020082A0020DFF808A25A
:107D080003AA53463146A81DFFF748FE044660B94A
:107D1800BAF804100498FFF72FFD04460A2C3FF424
:107D2800FDAE002C7FF4DBAEA8E7082231465046B2
:107D380008F024FDF2E7002E7FF4AAAE6D4B1A7B03
:107D4800B2B11E731A78013A062AA7D801A151F8D0
:107D580022F000BF037E0200297E0200477E020057
:107D68004D7E0200A57C0200537E0200697E02005F
:107D78001A78072AE6D801A151F822F0A57D020059
:107D88004D7D02004D7D0200CB7D0200DF7D0200AB
:107D9800FF7D0200FF7D0200C77D02001A89564957
:107DA80001321A8100225A801A730A78B2FA82F2D2
:107DB80052099A720A7DB2FA82F25209DA720122E3
:107DC80007E04E4958688A884088033202448A800E
:107DD80002221A70B6E7484C5A884849142505FB10
:107DE80002420868546850608888108102228A809C
:107DF8000C600622EDE70722EBE79A7A32B9DA7AC5
:107E08008AB900221A705A805A6087E63A490022D5
:107E18009A72CA68002AF2D1097C0029EFD05A80E8
:107E2800FFF702FE53E70022DA72334A116A00298B
:107E3800E7D192F82420002AE3D00122EFE7FFF7E8
:107E4800B7FC44E7FFF754FC41E706221A702A4AB8
:107E58005B88142101FB03235868FFF77DFC36E794
:107E680007221A7000225A60FFF762FC2FE70122EE
:107E78008DF80C201A89ADF818209A88DB68ADF8BF
:107E88001A20059310E002228DF80C201A89ADF80B
:107E980018209A88ADF81A20DA689B7D05929A1FF7
:107EA800534253418DF81C3003A8FFF7E3FB00262B
:107EB80049461348C8F8006000F048FB0121114802
:107EC80000F0F7FB00287FF4C9ADD7E603228DF850
:107ED8000C20DA88ADF818201A89CFE70422DB884D
:107EE8008DF80C20ADF81830DEE705238DF80C303E
:107EF800DAE700BFF8290020142A0020DC2A002035
:107F0800C82A0020D82A0020EC2A00204068FFF761
:107F18009DBD000008B50121044800F0B4FB18B964
:107F2800BDE80840FFF792BD08BD00BFD82A002071
:107F38002DE9F3419846354B1B7806460D46002B34
:107F48005BD000295BD009884FF6FF73994258D05F
:107F58006B88002B55D06B689B0754D14AB92F8981
:107F68000DF102013846FFF795FB30B102B0BDE8CC
:107F7800F08113885788ADF8023001A8FFF734FC68
:107F8800044658B9BDF80230214A142101FB0323E5
:107F980058890338C01B58810820E7E700238375F8
:107FA800BDF8023083826B68036180F8008001218C
:107FB800184800F073FB2B882381B8F1030F6B88F6
:107FC800A38004BF0423A3754FF0000508BF3368DE
:107FD800E06008BFA361E780658101A90E4800F051
:107FE8007AFA36B1E36833600C4B75601B89B57259
:107FF8003381FFF78FFF0020B8E70220B6E705209E
:10800800B4E70420B2E70320B0E700BFF02900205E
:10801800142A00200C2A0020C82A0020F829002051
:1080280008B5084B1A68042A09D01968064A42F8A4
:1080380021000121184600F031FB002008BD0C206A
:10804800FCE700BFE42A0020E02900202DE9F04FDA
:1080580089B01422002103A808F090FB7D4A137808
:1080680003F0FF01009190463BB103A8FFF702FB24
:108078000026304609B0BDE8F08F101D00F024FB43
:1080880005460028F4D140F6F8734FF080521B687B
:10809800DFF8ECA15C1C04BF6F4B1B6811695269C7
:1080A800581C08BF02FB01F3CAF810300022A3F5E0
:1080B80040536A49CAF80C30504600F02FFD064676
:1080C8000028D6D11C238C226549664800F0A4F903
:1080D8003746B3464FF003093446CDF804A0019B58
:1080E800D9680BEB010002465BF80110002835D077
:1080F8005D4B994232D141685C4B994215D00133AE
:1081080099422BD1009BDFF870A1002B59D1002296
:108118005749CAF80000FFF789FBBAF80420022A79
:1081280014BF0822042217433AE052494FF0140CB6
:108138000CFB04FC01EB0C024FF0000E01F80CE004
:1081480050600CF110020CF1080C0A446144FFF76E
:108158006DFB47F002070134A4B221E000F5805C12
:108168001168013167D104329445F9D1424A116846
:1081780029B9022101231060918000930EE0142296
:1081880062433C4B4FF0020E991803F802E03B4A59
:10819800486054800134A1F808E0A4B247F0010710
:1081A8000BF5805BBBF5405F99D1B9F1010F88BF32
:1081B8003D46EDB2022D02D0062D12D0DDB90B26B8
:1081C80057E72C4B1422624399184FF0020C03F81E
:1081D80002C00134DAF800204A60A1F808C0A4B24D
:1081E80095E7012388F8003003A80023C8F8043075
:1081F800FFF740FA3DE702A8FFF7F6FAC8B10123F6
:10820800013D03700A2D09D8DFE805F006080608C5
:10821800070807080F110F000023037102A911486E
:1082280000F059F9FFF776FE23E70323F5E7022369
:10823800F3E708261DE70F491422624301EB020CFD
:1082480009F1FF39CCF8040003201FFA89F9885492
:1082580081E700BFF029002014100010280D03004A
:108268003C2A0020C82A0020DEC0ADDEFE011EF137
:10827800E02A0020142A0020DC2A0020F829002007
:108288003022002073B50D460446C8B1C1B10DF1C6
:108298000601FFF72DFBA8B10B4BBDF80600666879
:1082A800142202FB003001210C3000F0F7F963685A
:1082B8002E600C336B600123A372002002B070BDE6
:1082C8000520FBE70A20F9E7142A002013B5044625
:1082D800A8B10DF10601FFF70BFB90B10B4ABDF8F1
:1082E8000630142101FB0323DA6862B1A27A52B185
:1082F800DA680020013ADA60A07202B010BD0520E9
:10830800FBE70A20F9E70620F7E700BF142A002058
:1083180002230022FFF70CBE18B103230022FFF747
:1083280007BE052070470000104B1B7813B50446A4
:10833800ABB14FF6FF73984213D001A8FFF754FA78
:1083480088B10523037001230371C48001A908487B
:1083580000F0C1F8FFF7DEFD002002B010BD0220DA
:10836800FBE70420F9E70820F7E700BFF029002021
:10837800C82A00200E4B1B7807B5A3B101A8FFF748
:1083880033FA90B10623037001A90A4800F0A3F854
:10839800094B1A780AB101221A73FFF7BBFD0020B6
:1083A80003B05DF804FB0220FAE70820F8E700BFF5
:1083B800F0290020C82A0020F829002007B5ADF8C8
:1083C800060002A820F8041D01460DF10600FFF77B
:1083D800E5FA03B05DF804FB13B502AC134624F8C4
:1083E800020D0A4600202146FFF7D8FA02B010BD58
:1083F80013B502AC134624F8020D0A4620460021A4
:10840800FFF7CCFA02B010BD20B119B103680B60B8
:10841800002070470520704710B561B1B2FBF3F436
:1084280003FB1424A4B244B9C0E900148460828117
:10843800C381204610BD0E20FCE70920FAE782B070
:1084480050E8022FC188B2EB324F4FF0000317BF3C
:1084580092B241EA014142EA014104E04268B2EBCA
:10846800324F08BF012340E80212002AE8D18DF8F4
:1084780007309DF80730002B0CBF1120002002B0F8
:10848800704737B550E8013F9DB2C48925448489B7
:10849800A54228BF2D1B0489A54202BFBFF32F8F19
:1084A800002207E0C5EA030540E80154002CE9D1A1
:1084B8004FF001028DF803200193019B9DF80320E2
:1084C8000B6002F0FF0322B10B880068184403B068
:1084D80030BD1846FBE70A884B889A4209D150E814
:1084E800012FC2EA024240E80123002BF7D1012004
:1084F80070470020704737B550E8023F1FFAA3F5D0
:10850800C488A54202BFBFF32F8F00220DE0C489A3
:1085180025448489A54228BF2D1BC3EA054540E8A8
:108528000254002CE8D14FF001028DF8032001938A
:10853800019B9DF803200B6002F0FF0322B14B88DA
:108548000068184403B030BD1846FBE70A884B881A
:108558009A4209D150E8022FC2EA224240E8022397
:10856800002BF7D1012070470020704701F01F024F
:108578004B090121914000EB830000F063B84B09DF
:1085880010B501F01F040121A14000EB830000F0A9
:108598004EF8E04000F0010010BD01F01F03012279
:1085A8009A404B0900EB8300D14300F061B84B09B6
:1085B80001F01F0150F82300C84000F00100704787
:1085C8002DE9F0474E1E760980460F4601360025F4
:1085D80058F8254008EB850AE44394FAA4F4B4FA61
:1085E80084F44FEA4519202C06D10135AE42EFD864
:1085F8003C462046BDE8F0874C44A742F5D92146C1
:108608004046FFF7BCFF0028F3D0DAF80040E44307
:1086180094FAA4F4B4FA84F4E5E750E8002F0B4682
:1086280040E8003C9CF0000FF7D11046704750E836
:10863800002F42EA010340E8003C9CF0000FF6D10D
:108648001046704750E8003F43EA010240E8002C1A
:108658009CF0000FF6D11046704750E8002F02EA50
:10866800010340E8003C9CF0000FF6D1104670472B
:1086780050E8003F03EA010240E8002C9CF0000F9C
:10868800F6D11046704750E8002F02EB010340E88E
:10869800003C9CF0000FF6D11046704750E8003FB0
:1086A80003EB010240E8002C9CF0000FF6D11046C5
:1086B800704750E8003FA3EB010240E8002C9CF013
:1086C800000FF6D1104670470121FFF7B0BF012116
:1086D800FFF7B8BF0021FFF7C0BF10B590B1D0E9D0
:1086E800012301689B1ADBB20A60013BDBB2FF2B56
:1086F800026802D10020107110BD11684C1C146072
:108708000B70F2E70E20F7E737B5054602A80024FC
:1087180000F8014DFEF774FF2A686B6811689942EA
:108728000ED9481E106011F8014CEB68298A01FB2C
:108738000434AB6811791B1ADBB2994238BF137144
:108748009DF80700FEF780FF204603B030BD37B51F
:10875800054602A8002300F8013D0C46FEF750FF2D
:108768002A681368591C1160E968641A298AB4FBDD
:10877800F1F41C709DF80700FEF766FF03B030BDEA
:10878800826810B504462AB14369016800699847B0
:108798000023A36010BD0EB403B5039929B102AA42
:1087A80004AB42F8043D00F073F802B05DF804EB46
:1087B80003B070470A2938B504460D4602D10D2189
:1087C800FFF7F8FFA3682268591CA160D554D4E9C3
:1087D80001329A4204D32046BDE83840FFF7D0BFA3
:1087E80038BD00002DE9F84F9946DDE90A431746E0
:1087F800824688460A460126BA420FD24E4538BFFD
:108808004E4613F0010B01D164B900240125B9F1DA
:10881800010F1AD909F1FF397D43F8E7B2FBF7F2E6
:108828000136E9E79B070ED5B9F1000F0CBF3025DB
:108838002025A642EAD2013C29465046FFF7BAFF56
:10884800002CF6D1E1E72025F3E7B8FBF5F39F42CA
:10885800E2D9DFF83890B8FBF5F3504619F8031061
:1088680005FB1388FFF7A6FFB5FBF7F5002DF2D13E
:10887800BBF1000F02D00CB1A64201D3BDE8F88FBE
:1088880020215046013CFFF795FFF4E73C0B03001D
:108898002DE9F74F054690460E46002900F03A812B
:1088A80016F8011B002958D0252940F0D18000274F
:1088B80002E047F001071646324612F8013B2D2B1D
:1088C800F7D0302B04D02B2B05D147F00407F2E763
:1088D80047F00207EFE700242A2B06F101021BD11B
:1088E800D8F80030191D1B68C8F800101C4416463B
:1088F80033782E2B1CD101364FF0000A314611F87F
:10890800012BA2F13000092814D80A2303FB0A23FB
:10891800A3F1300A0E46F1E712F8013CA3F1300149
:108928000929E5D80A2101FB0434303C1646D3E76F
:108938004FF0000A324612F8011B01F0FB006828CC
:108948001646F8D0692916D054D8582970D00ED8B0
:1089580025297DD03378002BA2D12B7B002B00F06A
:10896800D980284603B0BDE8F04FFFF709BF632957
:1089780068D06429EED1D8F80020D2F80090111DF3
:1089880089EAE972C8F80010A2EBE9724FF0010B0E
:10899800092A61DCD34538BFD3462CB1B9F1000FA1
:1089A80001DB790700D5013CBA0702D5BAF1000FFF
:1089B80004D0FB0702D4002C54D10024B9F1000FD5
:1089C80058DAC9F100092D212846FFF7F3FE07F010
:1089D8000302022A05D1BAF1000F02D1002C4DD1B1
:1089E8000024CDE9004753460A2249462846FFF7A6
:1089F800F9FEAFE7732954D016D87029AAD1D8F850
:108A080000301A1DC8F80020302128461C68FFF7DE
:108A1800D1FE78212846FFF7CDFE00220823CDE9B4
:108A2800003221461022E1E775292FD0782991D10B
:108A3800D8F800100A1DC8F80020CDE900475346B1
:108A480010222CE0D8F800301A1D1978C8F8002038
:108A58002846FFF7AFFE7DE70A230BF1010B92FBD7
:108A6800F3F295E7A345A9D220212846013CFFF758
:108A7800A1FEA0E77807AAD52B21A5E7A345B0D288
:108A880030212846013CFFF795FEA7E7D8F80010EB
:108A9800CDE900470A1DC8F8002053460A22096894
:108AA800A4E7D8F800301A1DC8F80020F907D3F851
:108AB800009012D54F46A7EB090B17F8011B41B9D7
:108AC800A345BFF447AF20212846013CFFF772FEBB
:108AD800F6E72846FFF76EFEEDE7B9F1000F17D06D
:108AE800484607F07EFE0746BC4200D954B909F152
:108AF800FF3919F8011F00293FF42CAF2846FFF76A
:108B080059FEF6E720212846013CFFF753FEEBE724
:108B18004F46E9E703B0BDE8F08F000007B50B4604
:108B280088B9124B1248134AC01A0E23C008009382
:108B3800114B0004114940F00100FDF7CFFF0E2052
:108B480003B05DF804FB4BB9084B09480C4AC01A3E
:108B5800C0080E2300930004074BEBE703601B6873
:108B6800114603B05DF804EB184700BFE80803009E
:108B780038090300F90B03004C0B0300FE0B03003C
:108B8800750C03002DE9F34188B93D4B3D483E4A39
:108B9800C01AC0080E243D4B009400043C4940F024
:108BA8000100FDF79BFF204602B0BDE8F0814AB9FD
:108BB800334B3448374AC01AC0080E2400040094C6
:108BC800324BEBE7D0F800C0BCF1000F09D12C4BB9
:108BD8002C48314AC01AC0080824000400942B4BC2
:108BE800DCE74BB9264B27482C4AC01AC008092491
:108BF80000040094254BD1E74768D7F80480B3FBFD
:108C0800F8F708FB17374FB11D4B1E48244AC01A06
:108C1800C0080924000400941C4BBFE78F0709D043
:108C2800174B18481F4AC01AC008102400040094A3
:108C3800164BB3E712F0030F09D0114B11481A4A2B
:108C4800C01AC008102400040094104BA6E7C76897
:108C5800B9420BD34C1E05691C44AC4206D8DCF85B
:108C68000C40A44602B0BDE8F0416047044B0548FB
:108C78000E4AC01AC008102400040094034B8DE764
:108C8800E808030038090300F90B03005E0B030032
:108C9800FE0B03007B0C03006F0C03002E0C03007B
:108CA800810C0300AB0C0300C30C0300E60C0300AB
:108CB800F7B580B92A4B2B482B4AC01AC0080E2496
:108CC8002A4B009400042A4940F00100FDF706FFF2
:108CD800204603B0F0BDD0F800C0BCF1000F09D1A8
:108CE8001F4B2048234AC01AC008082400040094D7
:108CF8001E4BE8E74AB91A4B1A481F4AC01AC0085F
:108D0800092400040094194BDDE74768D7F800E010
:108D18000EF1FF370F4209D0114B1248174AC01AFB
:108D2800C008102400040094104BCCE7C768B9426F
:108D38000CD34C1E05690EFB0244AC4206D8DCF885
:108D48001040A44603B0BDE8F0406047044B054816
:108D58000B4AC01AC008102400040094034BB2E761
:108D6800E808030038090300F90B0300710B03003E
:108D7800FE0B03006F0C03002E0C0300840B030092
:108D8800AA0B030029DF704728DF704770B5036816
:108D98009D6886B004460E466DB1142200216846CF
:108DA80007F0ECFCA3680593237901962BB1012BFE
:108DB8000DD06846A84706B070BD01238DF8003075
:108DC80023690293E368039363690493F1E7022339
:108DD8008DF80030E3681B030293F5E708467047F7
:108DE80000207047024B187A003018BF01207047E6
:108DF800902B0020034B187A0122B0FA80F05A74A5
:108E080040097047902B002008B510461A4607F015
:108E18008CFC002008BD000008B51422002104487D
:108E280007F0ACFC0348FFF70AFB002008BD00BFB1
:108E3800902B0020802B002010B5094C094B436073
:108E48002046FFF741FC40B907F00EFA1C232074B6
:108E58008C2205490548FFF7DFFA002010BD00BF46
:108E6800902B00201C0D0300F42A0020802B0020EA
:108E780070B5244D244E2B7A2C463BB923492448FF
:108E8800FFF739FB306008B9686070BD02232372B0
:108E980033681A7972B1012A24D018460321FFF7E2
:108EA80075FF00232372636018491948BDE87040B4
:108EB800FFF74CBBD3E90520121AB2F5805F28BF33
:108EC8004FF48052D3E903159208012A014438BFB0
:108ED80001222844FFF756FF50B11128DDD10123A4
:108EE8002372D2E7D3E903021044FFF74DFFF3E7FB
:108EF800237C002BC9D10146BDE87040022000F058
:108F080009B800BF902B0020A82B0020A42B00201C
:108F1800802B002038B5831E012B45D8234C237A9B
:108F2800002B41D0022B09D1032830D0204B1B68DD
:108F38000022E2601A793AB1012A22D0637C7BBB15
:108F4800BDE83840FFF794BFD3E905128D1AB5F58F
:108F5800805F94BF521902F580529A619142EDD117
:108F680002284FF0000308BF19462372104B18BFA0
:108F78000D211868FFF70AFF0E490F48FFF7E6FAB8
:108F8800DCE71A6901321A615B699A42E7E7E3682C
:108F98000133082B01D8E360D0E70023E360DFE763
:108FA800BDE8384007F050B938BD00BF902B00200D
:108FB800A82B0020A42B0020802B002000F0FD030C
:108FC800012B08D1044B00225A74421E50425041D2
:108FD8001874FFF74DBF7047902B002010B5064C52
:108FE800201DFFF771FB28B9637C1BB9BDE8104051
:108FF800FFF73EBF10BD00BF902B00202DE9F341C5
:1090080080460D460F4801A916461F46FFF739FA54
:109018000446A8B11C22002107F0B0FB2D0B012348
:10902800237101A9C4F80080A760E560666105485E
:10903800FFF751FAFFF7D2FF002002B0BDE8F08138
:109048000420FAE7802B00202DE9F7438146884663
:10905800104801A917461E46FFF713FA0446B0B197
:109068001C22002107F08AFB00250A9BA36001A9A6
:109078002571C4F80090C4E9037866610548FFF7D4
:109088002AFAFFF7ABFF284603B0BDE8F0830420B7
:10909800FAE700BF802B00202DE9F047B0F80690D2
:1090A8004479D2F800A09DF8208009FB04F4043C20
:1090B80006460AEB0300A0420F4688BFA4EB030A4A
:1090C800191DC2F800A0B1FBF9F509FB15114DB93E
:1090D800A9EB0104544528BF5446BAF1000F04D146
:1090E800BDE8F0873668013DF1E704317B19701857
:1090F8002246B8F1000F0ED001461846AAEB040A22
:1091080007F013FBD145254436684C464FF0000163
:1091180028BF5446E1E71946F0E7FFF7DEBAF8B58D
:1091280046790146721E0546002393422D6803D3F3
:109138000024A64202D8F8BD0133F6E70F68284696
:10914800FFF705FB01343946F3E72DE9F843068AB2
:10915800CD1C0746FFF7D8FA043E35440446B5FB54
:10916800F6F5F0B14FF48073EDB28380C680013D0F
:10917800076081464FF00008A84512D23846FFF72D
:10918800C3FA064648B163790133637108F10108EF
:10919800C9F8000007608146EEE72046FFF7BFFFE9
:1091A80034462046BDE8F88301210430FFF776BA3B
:1091B80010B5012104460430FFF77BFA10F0FF0FC9
:1091C80004D12046BDE81040FFF7A9BF10BD1FB568
:1091D80004AC44F8042D002200922246FFF75CFFFD
:1091E80004B010BD1FB504AC44F8042D0122009250
:1091F8002246FFF751FF04B010BD0000064B10B522
:1092080000241C70054B1C60BFF35F8F04490548A0
:1092180000F013F8204610BDB42B0020B82B002016
:10922800480D0300AC2B0020836800225A609A6026
:10923800C3E90422DA601A6070470B684A68436021
:10924800934208BF0023016008BF4360704743682A
:1092580043B10268916852680B449342436004BF6B
:1092680000234360704700000D4930B5A1F59472A2
:109278000225914201D800200EE08B1ADB1093FBE7
:10928800F5F302EBC30452F83330834205D802D217
:1092980004F10802EDE7606830BD2146E9E700BF48
:1092A800980E030008B5FFF7DFFF024B002808BF40
:1092B800184608BD5D0D0300A8DF7047AADF704798
:1092C800ACDF7047AEDF704762DF704737B51A4BC7
:1092D80005461A482A88C01AC00800040C4640F0FF
:1092E80003001749FDF7E6FB44B12B88112B07D083
:1092F800502B08D0102B01D1AB88A38103B030BD0F
:109308004FF6FF73F9E7EA88E3889A42F6D12B8A89
:10931800022BF3D12369002BF0D005F1120003F0E2
:10932800EBFC38B100238DF8043001A923692046ED
:109338009847E3E70123F6E7E8080300200903005C
:10934800C7120300F0B54FF6FF7383810B68036102
:1093580099B04E4B04AA054603F110061746186843
:109368005968144603C40833B3422246F7D105F1BD
:109378000A0631463846FFF7A7FF0446002840F0A2
:109388008280AB7A8DF80A3018A940F65A6321F822
:10939800583D2A460120FFF78FFF0446002872D166
:1093A80001460322684607F0E9F941F21113ADF8C6
:1093B80000309DF80230012262F3420321461C224C
:1093C80011A88DF8023007F0D9F99DF844301294AD
:1093D80043F016038DF84430CDE914442C4BCDF8F6
:1093E80058D008AA179403F1100C17461868596842
:1093F800144603C4083363452246F7D1314638463C
:10940800FFF762FF044600283DD1AB7A8DF80E3095
:1094180001AE4EF2DB53014603223046ADF80C3064
:1094280007F0ACF99DF80430012262F3030362F3FC
:1094380007138DF804309DF8053062F3030362F3D7
:1094480007138DF805309DF8063062F3420364F384
:10945800C30364F3041364F30003214614220CA825
:109468008DF8063007F08AF903ABCDE90C360223F4
:109478000E93ADF83C300CAAEB1811A9288810946B
:10948800FFF71CFF0446204619B0F0BD5212030036
:1094980062120300F0B589B00646ADF80610002840
:1094A80043D002AF08220021384607F067F90223AB
:1094B80002933A460DF106037188B0890393FFF7CA
:1094C800FFFE054640BB1A4B1A4CB289E41AE40861
:1094D8004FF6FF7324049A4244F003041FD010226D
:1094E80001460DEB020007F049F97388ADF810301A
:1094F80001238DF81230BDF80A30ADF8143004A9F4
:10950800039BB08906970793FFF7DCFE0A490546D7
:1095180002462046FDF7CEFA284609B0F0BD0749B5
:109528002046FDF7C3FA0825F6E70E25F4E700BF45
:10953800E8080300200903007212030092120300D6
:109548000C4B1B78062B10D10B4B1B681A070CD140
:109558000A4B186800F0F003302B08D000F0E00048
:10956800A0F140035842584170470020704701203D
:10957800704700BFE00F00F0E40F00F0E80F00F0C4
:10958800094B1B78062B0CD1084B1B681A0708D10E
:10959800074B186800F0F000A0F13003584258411A
:1095A80070470020704700BFE00F00F0E40F00F0A4
:1095B800E80F00F008B5FFF7C3FF28B17D4B7E4ADE
:1095C8001B68C3F304231360FFF7DAFF10B17B4B6A
:1095D8007B4A1A60FFF7B4FF28B17A4B7A4A1B68B6
:1095E800C3F342331360FFF7CBFF20B1774AD36848
:1095F80023F08073D360FFF7A3FF40B14FF080439F
:109608000022C3F80C21C3F81021C3F83825FFF74E
:10961800B7FF10B16E4B03221A60FFF7B1FF40B1DC
:109628006C4B05221A6001229A6700229A603F2239
:109638005A60694B1B78062B50D1684B1B68190779
:109648004CD1674B1B6803F0F003502B46D14FF009
:109658008052644BD2F80414C3F82015D2F80814C9
:10966800C3F82415D2F80C14C3F82815D2F810142E
:10967800C3F82C15D2F81414C3F83015D2F81814FE
:10968800C3F83415D2F81C14C3F84015D2F82014C6
:10969800C3F84415D2F82414C3F84815D2F828148E
:1096A800C3F84C15D2F82C14C3F85015D2F830145E
:1096B800C3F85415D2F83414C3F86015D2F8381426
:1096C800C3F86415D2F83C14C3F86815D2F84014EE
:1096D800C3F86C15D2F84424C3F87025FFF730FF9F
:1096E80028B1414B414A1B6803F04F031360FFF751
:1096F80027FF48B14FF08043D3F80024D20744BF76
:109708006FF00102C3F80024394B1B68062B08D1FF
:10971800384B1B68062B01BF374A136843F4806334
:109728001360364AD2F8883043F47003C2F88830A0
:10973800BFF34F8FBFF36F8F4FF01023D3F8002282
:10974800002A03DBD3F80432002B2FDA2C4B01223A
:10975800C3F80425D3F80024002AFBD04FF01022C8
:109768001521C2F80012D3F80024002AFBD04FF0CC
:1097780010231522C3F80422214B1A46D3F80014EB
:109788000029FBD00021C3F80415D2F80034002BBF
:10979800FBD0BFF34F8F19491A4BCA6802F4E06235
:1097A8001343CB60BFF34F8F00BFFDE7164B174A3B
:1097B8001A6008BD240300104035014074C00740FA
:1097C8000DF0ADBA440200103C050040F0ED00E099
:1097D800A005004010560040E00F00F0E40F00F034
:1097E800E80F00F000C0004058020010E40E0040EE
:1097F80030010010340100103C17004000ED00E07B
:1098080000E001400400FA05602200200090D00327
:10981800054A4FF0A043105CD3F8043523FA00F052
:10982800C04300F001007047F1120300044B1A5CBA
:10983800012393404FF0A042C2F80C35704700BF97
:10984800F1120300044B1A5C012393404FF0A0422D
:10985800C2F80835704700BFF112030008B50020B0
:10986800FFF7F0FF0120FFF7EDFF0220FFF7EAFF07
:109878000320BDE80840FFF7E5BF08B50020FFF763
:10988800D5FF0120FFF7D2FF0220FFF7CFFF03200B
:10989800BDE80840FFF7CABF074A4FF0A041105C77
:1098A800D1F804350122824022EA03001340C1F8AE
:1098B8000805C1F80C357047F1120300054A4FF04E
:1098C800A043105CD3F8103523FA00F0C04300F031
:1098D80001007047ED1203000D2809D00E2809D0A9
:1098E8000F2809D010280CBF03204FF0FF30704715
:1098F800002070470120704702207047014B185C18
:10990800704700BFED120300C20708B501460CD529
:109918004FF0A0430322C3F85827C3F85C27C3F8C5
:109928006027C3F85027FFF799FF8B070AD54FF038
:10993800A0430C22C3F83427C3F83827C3F83C27C0
:10994800C3F8402708BD000038B5084C04F10803E7
:109958000546002818BF1C4623682BB11A682260E8
:109968005B6828469847F7E738BD00BFC42B00203E
:1099780020B9054B01225A70FFF7E6BF012802D132
:10998800014A9070F8E77047BC2B002020B9034BC0
:1099980001225A70FFF7D8BF704700BFBC2B0020C8
:1099A80038B50B4C237883B90A486360A3602361F8
:1099B800E36000F0C7F8054606F056FC08B900F069
:1099C800CFF801232370284638BD8525FBE700BF63
:1099D800BC2B00207999020037B502A80023094C56
:1099E80000F8013DFDF70CFEE368013BE360E56824
:1099F80015B900F0C7F8A5709DF80700FDF724FE1B
:109A080003B030BDBC2B0020012813B509D003D307
:109A180003281BD002B010BD0F4B0122C3F88020D1
:109A2800F8E702A800230D4C00F8013DFDF7E8FD1A
:109A380023780BB9FFF7B4FFE3689DF807000133FB
:109A4800E3600123A370FDF7FFFDE3E700F088F86A
:109A5800FFF7C2FFDEE700BF00E100E0BC2B0020FB
:109A68001FB503788DF800304368019383688DF83B
:109A78000830C3680393054A054B684653F82130FC
:109A880052F82110984705B05DF804FBD02B002050
:109A9800D42B00201FB503788DF80030436801935C
:109AA80083688DF80830C3680393054A054B6846F8
:109AB80053F8213052F82110984705B05DF804FB9F
:109AC800D02B0020D42B0020F0B5194B067891F844
:109AD8001DE043F82620174B94460A6943F82620D0
:109AE800154B03F806E00C4607460FCC89B06D46C7
:109AF8000FC594E80F0085E80F000496BEF1000F2B
:109B08000AD0BCF1000F0D4A694608BF0022381D73
:109B180000F068FD09B0F0BDBCF1000F084A6946C5
:109B280008BF002207F10C0000F068FBF2E700BF55
:109B3800D42B0020D02B0020D82B0020699A0200BB
:109B48009D9A0200054A13792BB901211060117101
:109B58005371184670478520704700BFDC2B0020E2
:109B6800074B1A68D2075FBFC02283F8002301227F
:109B78001A604FF080430122C3F81825704700BFD0
:109B880000E100E0044B01221A604FF08042D2F855
:109B98001834DB03FBD470470C000040154B07B5A5
:109BA8001A687AB100221A601B680093009B4FF074
:109BB80080430122C3F808230F4B587910B95A7112
:109BC8001B6898470D4B1A6882B100221A601B68FF
:109BD8000193019B4FF080430222C3F80823064BF0
:109BE8001B68012003B05DF804EB184703B05DF86B
:109BF80004FB00BF00010040DC2B002004010040F2
:109C080000F1804000F5C040002382B00360036883
:109C18000193019B02B07047800000F1A040D0F88A
:109C2800003723F44033C0F80037D0F8003743EA50
:109C38000141C0F800177047054B4FF0FF32072865
:109C480043F8202084BF1B1883F84820704700BFC2
:109C5800E42B002010B5164C94F8583033BBFF2184
:109C6800E2180133202B82F83010F9D10021C8B254
:109C7800FFF7E2FF01310C29F9D1042200210D4838
:109C880006F07CFD0C4BC02283F8062340221A60A4
:109C98004FF4BE70FFF7B4FF084B4FF00042C3F813
:109CA8000423012384F85830002010BD0820FCE765
:109CB800E42B0020382C002000E100E00060004088
:109CC800034B93F85800003018BF0120704700BFBD
:109CD800E42B0020F0B5394D2C18944694F9304007
:109CE800002C68DA8E78C6F34006002E15BF0023D4
:109CF800082308270C27BB4201D10420F0BD55F8E2
:109D0800232001324FEA830441D12F1845F823C09C
:109D180087F8303016B9EA1882F848008A7856076A
:109D280016D4D70735D5820002F1A042D2F80067D1
:109D380026F00206C2F80067214FC60800F0070C9B
:109D4800012202FA0CF217F806C042EA0C02BA55D0
:109D58008A780E7812F0020224D004F1804303F5C9
:109D6800C0430002D3F8102522F4473222F440728F
:109D7800C3F810253604D3F8102500F4F85006F47B
:109D8800403630431043C3F810050020B6E70133CE
:109D9800B1E74E7800F5E0724FF0A047B60047F8FB
:109DA8002260C9E7083B2B4493F8500040EA861626
:109DB80083F85060E9E70820A0E700BFE42B002003
:109DC800382C002038B5204C251895F93020072A62
:109DD80018DD224492F848309B09032B0DD14FF02F
:109DE800A043D3F81035C34013F0010F0CBF022174
:109DF8000321BDE83840FFF70FBF012B14BF032133
:109E08000221F6E7D3B2072B1CD8930003F1804355
:109E180003F5C043D3F8100540F00100C3F810055E
:109E280002F14000800080B2FFF7EAFE51B195F9D7
:109E3800303054F823302BB1012303FA02F2034BDC
:109E4800C3F8042338BD00BFE42B002000600040A5
:109E58004FF0A043D3F8103523FA00F000F00100CA
:109E6800704700002DE9FF470024584A584E594DC5
:109E7800019401211368A2F5C040012B80B206D1DC
:109E8800D6F804330B4202D0FFF7BAFE0C43043273
:109E9800AA424FEA4101EDD14F4B1B68012B0AD171
:109EA8004FF4BE70FFF7ACFE4FF0A04344F00044FF
:109EB800D3F81035019314F0FF0F1AD0474F00253F
:109EC8000126344210D0AB0003F1804303F5C043B0
:109ED800D3F81005D3F8101557F82530C0F304202F
:109EE800C1F3014103B198470135082D4FEA4606F1
:109EF800E7D1002C66DA00224FF0FF33CDE90223C8
:109F0800DFF8D8900127002634464FF0A04809EB27
:109F1800060393F95020531C45D0D2B222F0C00555
:109F2800E90804A8084402F0070310F804CC07FA6B
:109F380003F31CEA030F36D009EB050C92099CF9D0
:109F480030C059F82CA0BAF1000F0AD1032A2AD13F
:109F58000DF1080E1EF801C04CEA030C0EF801C002
:109F680001E0032AF4D005F5E07110F80C0C58F85C
:109F780021101842C1F3014105D0022913D1032A47
:109F88000BD1114604E003290DD1032A05D1022182
:109F98002846FFF741FE0134E4B2BAF1000F02D0BF
:109FA80011462846D0470136042EB0D154B14FF09F
:109FB800A043019AD3F81035934203D00193029B32
:109FC8000393A0E704B0BDE8F08700BF006100403C
:109FD80000600040206100407C610040E42B0020CC
:109FE800014B1B68184700BF402C00200D4B9842BE
:109FF80037B50D4610D102A8002300F8013DFDF742
:10A00800FFFA094B1C7914B901221D601A719DF8D9
:10A018000700FDF719FB14B9002003B030BD11206B
:10A02800FBE700BF00200040402C0020034B984273
:10A0380001BF034B00221A601A71704700200040CC
:10A04800402C00200023435082B043580193019BC9
:10A0580002B070470A4610B54FF48E71FFF7F2FF51
:10A06800136A9168C95C136A01331362C0F81C153E
:10A0780010BD8B690A4610B54FF4847123B9FFF7F8
:10A08800E1FFD0F8183510BDFFF7DCFF536AD1683F
:10A09800D0F81805C854536A01335362F3E7000037
:10A0A8001FB501238DF80030044BCDE90110D3E929
:10A0B80000126846904705B05DF804FB482C002064
:10A0C80030B54C4AD2F8043313F4007F85B01546F6
:10A0D8004FD0D2F82431002B4BD04FF49271104658
:10A0E800FFF7B0FF4FF40173C2F80833424B93F8FF
:10A0F800291009B9012151603E4902228DF800203A
:10A10800D1F88024C1F8802403929A690292DA680F
:10A1180001920022C3E906226846D3E9001290475B
:10A128003448D0F81C315BB133490A6A4B699A420A
:10A138000A464BD291F82830002B47D1FFF78AFF07
:10A148002C4AD2F8443193B14FF4A2711046FFF76C
:10A1580079FF294B93F8291009B1012111609A69F7
:10A168002AB100229A61586AD968FFF799FF05B0A9
:10A1780030BDD5F804335B07D2D5D5F80831002BAC
:10A18800CED01D4C1B482146FFF773FF636AA269B6
:10A198009A422346C4D1E269E1684AB12369E3607F
:10A1A8000023606AA261E3616362FFF779FFB7E7A2
:10A1B80094F829200AB901226A600E4A4FF4017006
:10A1C800C2F8080300229A61586AEEE74FF48E71CC
:10A1D8000848FFF737FF51690029B1D000230291E1
:10A1E80091688DF80030019153616846D2E90013F7
:10A1F8009847A5E700200040482C00202DE9F843A7
:10A20800564F047991462C2202FB0472064692F8B6
:10A218002A200D46002A40F09A8051490068FFF72D
:10A22800E5FE8046002840F0958029683368481C80
:10A238000BD04FF0A04001228A40C0F8082501F554
:10A24800E0724FF0030C40F822C06868421C1FBF40
:10A2580000F5E0724FF0A04C4FF0000E4CF822E0F1
:10A26800AA6995F814C0C3F824256A7DBCF1010FCA
:10A278004CEA0202C3F86C25C3F81405C3F80C15A0
:10A288001DD1AA68511C1FBF02F5E0714FF0A04014
:10A298004FF0000C40F821C0E968481C0BD04FF083
:10A2A800A04C01208840CCF8080501F5E0704FF07B
:10A2B800030E4CF820E0C3F80815C3F810252C232A
:10A2C8006343FA18C2F804902A69FA50B9F1000FEA
:10A2D8002AD04FF48E7130682D7FFFF7B3FE3068B7
:10A2E8004FF4A271FFF7AEFE32681E4BC2F804337A
:10A2F800120B51B20029A8BF01F160404FEA451383
:10A30800BABF194802F00F0500F56140DBB2B4BFCF
:10A31800435580F8003302F01F02012303FA02F2CA
:10A328004909124B43F8212033680422C3F8002559
:10A338002C2303FB04730022C3E9062283F8292097
:10A348005A61012283F82A204046BDE8F8834FF07D
:10A358000808F9E74FF01108F6E700BF482C00207D
:10A36800C9A002008000020014ED00E000E100E056
:10A37800F8B5047900682D4D0023C0F800352C236A
:10A3880003FB04535B6873B1294BC0F80833020B15
:10A3980053B201215B0902F01F0201FA02F22033D5
:10A3A800244941F82320D0F80C65D0F81415D0F8CA
:10A3B8000835D0F810254FF0FF37BE42C0F81475A5
:10A3C80018BF06F5E076C0F80C75C0F80875C0F837
:10A3D80010751EBF4FF0A0474FF0020C47F826C07B
:10A3E8004E1C1FBF4FF0A04601F5E071022746F84A
:10A3F8002170511C1FBF4FF0A04102F5E0720226E8
:10A4080041F822605A1C1FBF03F5E0734FF0A042C9
:10A41800022142F82310FFF709FE2C2303FB045402
:10A42800002384F82A306360F8BD00BF482C002060
:10A438008402020000E100E02DE9F843224F06798A
:10A448004FF02C0909FB067480466569002D37D149
:10A458006261A16025624FF48E71006884F828500B
:10A46800FFF7F0FDD8F80000012383602146FFF7CD
:10A47800F1FD6368A1462BBBD8F80050226A6369D6
:10A488009A4212D3D8F80030D3F81C21002AFBD006
:10A498000122DA6000202C2303FB06760023736177
:10A4A800BDE8F88394F8283043B9D5F81C31002B5F
:10A4B800F8D049462846FFF7CDFDDFE70F20EAE749
:10A4C8001120EDE72846EBE7482C002000234350F5
:10A4D80082B043580193019B02B070471FB5012316
:10A4E8008DF80030044BCDE90110D3E9001268461D
:10A4F800904705B05DF804FB742C00207FB5374AFF
:10A50800D2F82461002E48D010464FF49271FFF71C
:10A51800DDFF02238DF80030D2F88034C2F8803491
:10A528000393D2F83C3502932D4BDA68019200224E
:10A53800C3E906226846D3E900129047274AD2F8B1
:10A5480044317BB14FF4A2711046FFF7BFFF244B93
:10A55800996939B10021C3E90611D968D2F83C05D7
:10A56800FFF7BCFF1D4AD2F82031A3B14FF4907118
:10A578001046FFF7ABFF1A4B596961B1D2F84C1579
:10A588000291002299688DF8002001915A6168466D
:10A59800D3E90012904704B070BDD2F81031002BF7
:10A5A800CCD04FF488711046FFF790FF0C4BD2F8CF
:10A5B8003C0599698842C1D1DC69D96864B1D2F88F
:10A5C800005225F02005C2F800521A699C61DA6031
:10A5D800DE61FFF783FFB1E79C61FAE700200040E6
:10A5E800742C00202DE9F8435A4F0679914624220D
:10A5F80002FB0672044692F820200D46002A40F01D
:10A60800A28055490068FFF7F1FC8046002840F019
:10A618009D8029682368481C0BD04FF0A040012278
:10A628008A40C0F8082501F5E0724FF0030C40F8A5
:10A6380022C06868421C1FBF00F5E0724FF0A04CB2
:10A648004FF0000E4CF822E0AA6995F814C0C3F840
:10A6580024256A7DBCF1010F4CEA0202C3F86C257F
:10A66800C3F80C15C3F814051DD1AA68511C1FBFE7
:10A6780002F5E0714FF0A0404FF0000C40F821C007
:10A68800E968481C0BD04FF0A04C01208840CCF85A
:10A69800080501F5E0704FF0030E4CF820E0C3F810
:10A6A8000815C3F8102524237343FA18C2F8049038
:10A6B8002A69FA50B9F1000F34D04FF48871206834
:10A6C8002D7FFFF703FF4FF490712068FFF7FEFE20
:10A6D8004FF492712068FFF7F9FE20684FF4A271D9
:10A6E800FFF7F4FE22681D4BC2F80433120B51B277
:10A6F8000029A8BF01F160404FEA4513BABF1848C6
:10A7080002F00F0500F56140DBB2B4BF435580F895
:10A71800003302F01F02012303FA02F24909114B28
:10A7280043F8212023680822C3F80025242303FBCB
:10A7380006730022C3E906225A61012283F8202009
:10A748004046BDE8F8834FF00808F9E74FF01108D4
:10A75800F6E700BF742C002005A5020010030200D4
:10A7680014ED00E000E100E0F8B5047900682D4D33
:10A778000023C0F80035242303FB04535B6873B13E
:10A78800294BC0F80833020B53B201215B0902F0D0
:10A798001F0201FA02F22033244941F82320D0F89D
:10A7A8000C65D0F81415D0F80835D0F810254FF0FE
:10A7B800FF37BE42C0F80C7518BF06F5E076C0F842
:10A7C8001475C0F80875C0F810751EBF4FF0A04783
:10A7D8004FF0020C47F826C04E1C1FBF4FF0A04692
:10A7E80001F5E071022746F82170511C1FBF4FF098
:10A7F800A04102F5E072022641F822605A1C1FBFF0
:10A8080003F5E0734FF0A042022142F82310FFF74E
:10A818000DFC242303FB0454002384F820306360D8
:10A82800F8BD00BF742C00201003020000E100E016
:10A8380001F06043B3F1005F2DE9F041074632D1E2
:10A848001C4B0679242505FB063598466C6964BBC4
:10A858006A61A96000684FF49071FFF737FE4FF402
:10A86800AC713868FFF732FE3B686A69A968C3F8BB
:10A878004415C3F8482501229A606A68BAB9D3F822
:10A888002011D3F8582149B9002AF8D00F202423E1
:10A8980003FB068600237361BDE8F081002A14BF1C
:10A8A8000F200020F3E71020F6E71120F4E72046F8
:10A8B800F2E700BF742C00207FB503788DF80430D0
:10A8C8004368029383688DF80C30C3680493036966
:10A8D8008DF81430054A064B01A853F8213052F878
:10A8E8002110984707B05DF804FB00BF982C0020A2
:10A8F800A42C0020F0B50646944616F8047B194AA5
:10A9080042F827C0184A42F82730184B0C460FCB9C
:10A9180085B06D4685E80F0023788DF800306378A0
:10A928008DF80130A3788DF80230E3788DF8033084
:10A9380023798DF8053063798DF80630A368029382
:10A94800237B8DF80C30BCF1000F637B8DF80D3044
:10A95800074A3B4608BF00222946304600F036F831
:10A9680005B0F0BDA42C0020982C0020181303007B
:10A97800C1A80200114BD3F8183182B0E3B1104BD3
:10A9880000221A601B680193019B0E4BD97FFF2997
:10A9980007D0987F01228A404FF0A04148B1C1F802
:10A9A8000C2500225A771A72D3E90021064802B012
:10A9B8001047C1F80825F4E702B07047003000409E
:10A9C80018310040B02C0020B82C00202DE9F74F9A
:10A9D80006796D4F01934FF0240A0AFB06FA07EB3C
:10A9E8000A0B91469BF81C20009780460C46002ACB
:10A9F80040F0C680056865492846FFF7F7FA002841
:10AA080040F0C080009B227B43F80A90019BCBF862
:10AA1800043094F800C04FF0A041012303FA0CF36E
:10AA2800012A94BFC1F80C35C1F808350CF5E0735C
:10AA38004FF0010E41F823E06378FF2B1FBF0EFA99
:10AA480003FEC1F80CE503F5E07E4FF0030A18BFDA
:10AA580041F82EA0A17808BF4FF0FF33FF2917BF98
:10AA680001F5E07E4FF0FF374FF0A04A4FF0040B9E
:10AA780008BF0197009F1CBF01914AF82EB04FF004
:10AA8800240E0EFB067E8EF82010E1788EF81F103B
:10AA9800FF2919D094F804A04FF0010B0BFA01FB21
:10AAA8004FF0A04EBAF1000F61D0CEF80CB501F509
:10AAB800E0714FF0030B4EF821B0DFF8CCE0242111
:10AAC80001FB06E181F81EA0C5F808C5C5F80C35DC
:10AAD800019BC5F81035A368C5F82435637B00339E
:10AAE80018BF0123022A45D0032A46D0012A01D1E2
:10AAF80043F00203C5F85435A379C5F8C035B9F158
:10AB0800000F02D04023C5F804330723C5F80035E9
:10AB1800B9F1000F20D0D8F8003062791B0B59B278
:10AB28000029A8BF01F16044DBB2B8BF03F00F05EC
:10AB38004FEA4212B4BF164C04F56144D2B2B4BF16
:10AB4800625584F8002303F01F03012202FA03F37D
:10AB58004909104A42F82130009A242303FB0626AB
:10AB6800002373770123337703B0BDE8F08FCEF865
:10AB780008B59CE743F00403BCE743F00603B9E7D4
:10AB88000820F1E71120EFE7B02C00207DA9020092
:10AB980014ED00E000E100E02DE9F3410579474EAE
:10ABA80024236B431446F2180F46517F8046002930
:10ABB80040F08180F35823B114F0140F04BF01232F
:10ABC800537797E80F004FF0240C0CFB056C0CF141
:10ABD8000C0E8EE80F009CF81F20FF2A08D09CF866
:10ABE8001E10012393404FF0A042C1B1C2F80835AE
:10ABF800396821B101F06043B3F1005F06D1BA684A
:10AC080082B102F06043B3F1005F0BD0242303FB51
:10AC1800056500236B77102002B0BDE8F081C2F80B
:10AC28000C35E5E7D8F800307868C3F84415C3F860
:10AC38004805F968C3F834250022C3F83815C3F865
:10AC48001821D3F818210192019A14F0010218BFB3
:10AC58000122C3F8502514F0020218BF0122C3F8DC
:10AC6800402522075CBF01221A6124226A43B25898
:10AC7800B2B9D3F81821002AFBD0242303FB0565B9
:10AC8800EA7FFF2A07D0A87F012393404FF0A04214
:10AC980018B1C2F80C350020BEE7C2F80835BBE78A
:10ACA80014F004004FF0400202D0C3F80823F2E782
:10ACB800C3F80423B0E71120AEE700BFB02C002092
:10ACC8000220FEF7E9BD00002DE9F04781460D4658
:10ACD800FEF702FE0328044604D8012D04D024D32D
:10ACE800022D2FD0BDE8F087194D47003A18A91852
:10ACF800AE5C4A7852B1DFF86880164842464FF495
:10AD08000041FCF729FC08B988F800903B192B444E
:10AD18009A78114B1A55002EE4D0104B1B68002B63
:10AD2800E0D03046BDE8F04718470A48FCF758FC21
:10AD3800074B04EB440213449E78074B1B5DB34258
:10AD4800D0D1E8E7024B00EB40041C446678E2E708
:10AD5800382D0020F82C0020512D00204C2D0020EB
:10AD6800D42C002002210078FFF7AEBF08B5094BAC
:10AD78001B7853B10020FEF765FD0120FEF762FD48
:10AD88000320BDE80840FEF75DBDBDE80840FEF7BA
:10AD980065BD00BFD52C0020F8B57B4C237805464F
:10ADA8001BB100232370FFF7E1FF172D00F2888005
:10ADB800DFE805F00C17174354657680888D888D79
:10ADC800959A9A9A9A9AC4C9D1D9E4E4FFF7CEFF22
:10ADD8006E48FCF705FC6E4B002204461A702046AC
:10ADE800F8BD0020FEF714FDF8B10020FEF72AFD9B
:10ADF800022D0CBF4FF4E1614FF47A61644B1D7072
:10AE08004FF400404FF4FA740025E0FB01454FF47D
:10AE18007A7200232046294605F08CFB0022014661
:10AE28005A48BDE8F840FCF797BBFEF7FFFC022D37
:10AE38000CBFC8214FF4C871E0E70020FEF7E8FC1A
:10AE480040B10020FEF7FEFC4FF44871504B03223E
:10AE58001A70D5E7FEF7EAFCC821F7E70020FEF7ED
:10AE6800D7FC38B10020FEF7EDFC4FF47A61484B6F
:10AE78000422EDE7FEF7DAFC4FF4C871F7E700208B
:10AE8800FEF7C6FC48B10020FEF7DCFC404B05226B
:10AE98001A7041F69A110022C2E7FEF7C7FCF5E7DF
:10AEA8000020FEF7F9FC3A4B06221A70002240F601
:10AEB800CD41B5E70020FEF7B9FC354B07221A70E3
:10AEC80000248CE701202070FEF7E6FCEEE7012065
:10AED8002070FEF7E1FC00224FF48041A0E7FEF766
:10AEE800CCFC2B4B0C22EAE72A482B4EFCF778FBCC
:10AEF800D5F1110504461CD0D8B9012D13D0C823AB
:10AF08005D434FF400474FF4FA7000214FF47A7212
:10AF18000023C7FB050105F00DFB224601461D482D
:10AF2800FCF71AFB04460220FEF780FC012333706D
:10AF380055E70220FEF786FC0023F8E7FFF716FF27
:10AF4800134B1222BBE7FFF711FF0020FEF76EFC40
:10AF58000F4B1322B3E7FFF709FF0120FEF766FC4A
:10AF68000B4B1422ABE7FFF701FF0020FEF75EFC56
:10AF78000120FEF75BFC064B1522A0E7FEF77DFCDF
:10AF8800034B1D709CE700BF482D0020182D0020A2
:10AF9800502D0020D82C0020D52C0020044B1B68F5
:10AFA800DB0703D5034B1878FFF7F6BE704700BFE1
:10AFB800442D0020502D0020032801D8FEF77EBC28
:10AFC80000207047044B1B6813F0010301D0FFF702
:10AFD800E3BE1846704700BF442D002038B51C4B0F
:10AFE80018601C4B10F00204054619601AD01A4B61
:10AFF8001A480E221A700F22DA7010229A71112242
:10B008005A72042140F26662FBF7A8FF044648B969
:10B01800FBF7F8FF044628B90146114A1148FCF726
:10B0280089FA0446EB0711D50120FEF76DFC6CB9CF
:10B0380021460D4A0D48FCF77DFA044630B90C4A02
:10B048000C480121BDE83840FCF774BA204638BDE9
:10B05800442D00204C2D0020382D002030130300F3
:10B068006DAD020054130300A5AF0200581303008E
:10B07800C9AC020050130300032812D8012A0BD1CF
:10B08800012908D100F10E02D2B200EB40000C4BAE
:10B098001A540020704700220129F6D009D302294A
:10B0A80001D007207047064B00EB4000184442705F
:10B0B800EFE7034B00EB400018448270E9E700BF5C
:10B0C800382D0020032808B512D8FEF717FC800099
:10B0D80000F1A040D0F8003723F44033C0F800371F
:10B0E800D0F8003743F44033C0F80037002008BDDB
:10B0F8000620FCE708B5012202210020FFF7BCFF6B
:10B1080008B1072810D1072202210120FFF7B4FF58
:10B1180008B1072808D100210A220846FFF7ACFF2A
:10B1280010B1072808BF002008BD00000388102BB5
:10B1380010B502D0112B1ED010BD1A4C2168B1B920
:10B1480001220846FFF798FF08B1072824D10722F3
:10B1580002210120FFF790FF08B107281CD1042223
:10B1680002210020FFF788FF08B1072814D12368BF
:10B1780001332360E0E70B4A1368013B1360002B9F
:10B18800DAD1FFF7B7FF0028D6D0074B1B68002B92
:10B19800D2D0BDE810401847034B1B68002BE6D0FF
:10B1A8009847E4E75C2D0020582D002008B50020C2
:10B1B800FFF788FF08B1062806D10120FFF782FFB4
:10B1C80010B1062808BF002008BD00000D4B10B5BF
:10B1D80018600C4629B10120FFF7EEFE40B10223AA
:10B1E8002370094B1B6853B9BDE81040FFF782BFB5
:10B1F800FFF7E2FE08B10B23F2E72070F1E7002029
:10B2080010BD00BF582D00205C2D002033DF704793
:10B2180076DF704778DF70477ADF70477CDF7047EA
:10B228008FDF7047014B01221A70704726300020CB
:10B238007047FBF7FDBE08B50020FFF7C3FE08B155
:10B24800FBF7F6FEFFF7B2FF08B1FBF7F1FEFFF7D9
:10B25800DDFF18B1BDE80840FBF7EABE08BD0000F5
:10B26800037810B504467BB90121406800F058FC0A
:10B2780008B1FBF7DDFE6368B3F90020034B1A80C1
:10B28800034A13680133136010BD00BF2430002047
:10B29800602D0020072808B513D00A280DD00428EF
:10B2A80019D10D4B13211888FFF7B2FF30F00803AE
:10B2B80011D0BDE80840FBF7BBBEBDE80840FFF76A
:10B2C800BABF054B1A884FF6FF739A4203D1034859
:10B2D80001F07CFAEAE708BD68220020642D00200E
:10B2E80008B598B1032815D10B4B0C480C49C01A66
:10B2F800C008000440F00300FBF7D8FB0220FFF76A
:10B3080061FE38B1BDE80840FBF792BEBDE80840D1
:10B31800FFF791BF08BD00BFE8080300200903003C
:10B32800341403000B784BB909480A4B0A49C01A70
:10B33800C008000440F00300FBF7B8BB012B06D19E
:10B348000348044B0549C01AC0080004F2E77047D7
:10B3580020090300E8080300D113030002140300C6
:10B3680008B50321044801F0EDF818B1BDE808401C
:10B37800FBF75EBE08BD00BF642D002010B5044673
:10B3880004F01AF8204603F03DFE23780C2B03D175
:10B39800BDE81040FFF7E4BF10BD000038B5054D0B
:10B3A800044645F001054FF47A40A847013CFAD11C
:10B3B80038BD00BF90130300FBF73ABE1FB5134A10
:10B3C80010685168127A01AB03C3114911481A7009
:10B3D80000F01AFB08B1FBF72BFE01A9002000F0D2
:10B3E80057FB08B1FBF724FE01210B4800F098FB3E
:10B3F80008B1FBF71DFE0121084800F091FB08B1D8
:10B40800FBF716FE05B05DF804FB00BF5C130300F4
:10B4180069B202007E130300BC2F0020BE2F00205B
:10B4280038B54FF0A04403234FF00045C4F87C37EB
:10B43800C820C4F80855FFF7B1FF3C20C4F80C55E4
:10B44800FFF7ACFFC4F80855C820FFF7A7FFC4F8FA
:10B458000C5538BD0388212B73B5044649D009D84B
:10B46800102B2AD0112B0ED02146284800F0CCFBF7
:10B4780002B070BD3B2B01D0562BF5D11321A0880B
:10B48800FFF7C6FE3CE0224B22482349C01AC008F9
:10B4980000044FF0A04540F00300FBF707FB4FF016
:10B4A80000460323C5F87C374FF47A70C5F8086561
:10B4B800FFF774FFC5F80C65D6E7154B1548174913
:10B4C800C01AC008000440F00300FBF7EFFA072099
:10B4D800FFF778FD08B1FBF7ABFD114BA1881148C8
:10B4E800198002F065FC08B1FBF7A2FDFFF798FF91
:10B4F800BAE702A9002321F8043D8088FFF790FEEF
:10B508000028B1D0FBF794FDAEE700BFE82F00207C
:10B51800E808030020090300651303007313030000
:10B5280068220020F82F002007B500F0CEFC08B1F3
:10B53800FBF77EFD0023019301238DF8053002A857
:10B5480018238DF80630132300F8043D00F0B8FCEA
:10B5580008B1FBF76DFD03B05DF804FB80B54FF44F
:10B568000041B0B00020FBF7DBF808B1FBF760FD45
:10B57800FBF70EF8FBF7AEFF08B1FBF759FDAB4A36
:10B58800AB480121FBF7D6FF08B1FBF751FDA949EC
:10B598000320FFF723FD08B1FBF74AFD05A90020AA
:10B5A800FFF714FE08B1FBF743FD9DF81460FDF7A3
:10B5B80025FE08B1FBF73CFD04F0DAFD08B1FBF706
:10B5C80037FD002305A90120059304F097FE08B173
:10B5D800FBF72EFD05A804F043FF08B1FBF728FD93
:10B5E80030AD1123944805F8B43D05F0FAF89249B6
:10B5F80082B22846FFF712FE08B1FBF719FD4FF497
:10B608008860FFF707FE08B1FBF712FD002108224A
:10B6180005A805F0B3F889494FF0C87305A8CDE926
:10B628000513FFF7F9FD08B1FBF702FD0021844877
:10B6380002F0ACFA08B1FBF7FBFCAC22002105A82C
:10B6480005F09CF8022306228DF814308DF8172097
:10B6580001237C4A8DF81630ADF824300A928DF813
:10B6680090304FF4967244F25063CDE9272305A930
:10B67800754B76482E9300F0E6FE08B1FBF7D8FC30
:10B688000121724800F0DCFE714B7248059305A950
:10B6980002F07CFB08B1FBF7CBFC04220021284612
:10B6A80005F06CF86C4B6D4803932946FDF74AFE8C
:10B6B80007466B486B4C00F0C7FA6B4B6B49E41AB2
:10B6C800E408240444F003042046FBF7EFF917B11B
:10B6D8003846FBF7ADFC1C22002105A805F04EF802
:10B6E80000234FF42032CDE90532ADF822304FF473
:10B6F80070228DF824305E4B07920A9305225D4B29
:10B708008DF8202005A80B9301F080F908B1FBF70C
:10B718008FFC03F01FF908B1FBF78AFC0522002112
:10B7280005A805F02BF89DF8143043F00103032217
:10B7380003F0F10362F306136FF3C7138DF81430A7
:10B7480007238DF8153010238DF816309DF8173023
:10B7580013438DF817309DF8183005A813438DF85A
:10B76800183003F091F908B1FBF762FC424803F086
:10B7780073F908B1FBF75CFCFFF720FEFFF7D4FE76
:10B78800002240F6CD413D48FBF7E6FE022E4AD1A5
:10B798003B492046FBF78AF903F0CEF908B1FBF7DD
:10B7A80047FC0120374C384FFEF7AEF8264600F02C
:10B7B8000BFA0A20FFF7F2FDB7F900102748FDF74A
:10B7C80069FE2378002BF2D001A800F08EFB05203B
:10B7D800FFF7E4FD284600F09BFBBDF81030ADF8FC
:10B7E8001830BDF80E30ADF81630BDF80C30ADF895
:10B7F80014301B48BDF80830ADF81E30BDF80630CF
:10B80800ADF81C300288BDF80430ADF81A304FF698
:10B81800FF739A4204D0037B13B105A900F088FA9C
:10B8280000233370C3E7FFF79BFDBAE72DB2020090
:10B83800981303009DB202009C13030028007800AF
:10B84800C02F002064220020E9B20200642D0020ED
:10B858003BB20200F82F00202DB30200D42F0020A5
:10B86800E82F002020090300E8080300A8130300BC
:10B8780039B20200C1B3020085B3020004300020CF
:10B88800C4130300263000202430002000F180403B
:10B8980000F5E040002382B0036003680193019B38
:10B8A80002B07047F0B5514B514C1B6885B0DBB105
:10B8B8004FF4827094F82E20FFF7E8FF12B194F845
:10B8C8002F30A3B1636802932389ADF80C30E36885
:10B8D80000218DF80410002B44D12374236801A89B
:10B8E8009847002384F82F3094F82E3003B3414B47
:10B8F8001B68EBB14FF48070FFF7C8FF94F82D2058
:10B90800638B91B28B4238D95B1A21899BB26383CE
:10B91800CB1A616801EB4301374BC3F82C16C3F807
:10B9280030264FF48270FFF7B1FF344B01221A60C2
:10B93800334B1B685BB14FF48870FFF7A7FF0023F8
:10B9480004A82374022300F80C3D236898472D4B64
:10B958001B6813B34FF48A70FFF798FF0023237412
:10B9680005B0F0BD208B608363602081E160002A10
:10B97800B4D1214B01221A60B0E7D2D1E36801218A
:10B9880084F82F103BB1002161831B49C1F82C3684
:10B99800C1F83026C5E76383C3E766694FF00047FF
:10B9A8000125002EDCD0B6FA86F227FA02F34632D9
:10B9B800920026EA030602F1804303F5E0431B6880
:10B9C800002BEED01046FFF761FFA2F58C72D3086A
:10B9D80082F00402C2F380028DF808308DF804501A
:10B9E8008DF80920236801A89847DAE70471004018
:10B9F80028300020007100400070004004700040B2
:10BA0800107100401471004038B51E4B044693F87D
:10BA18002C00A8BB1C4A19602178C2F8F01561787F
:10BA2800C2F8F415E5781874012183F82C1083F80E
:10BA38002D00586183F82F0083F82E506FF00043D3
:10BA4800C2F808334FF48270FFF720FF4FF480707C
:10BA5800FFF71CFF4FF48A70FFF718FFA3780B4815
:10BA68005B01DBB280F80733802303600223C2F84E
:10BA780004330DB1C2F80413C2F80015002038BD14
:10BA88000820FCE7283000200070004000E100E0BA
:10BA9800224B1A7C30B5002A3ED100F10C0403EB8E
:10BAA8004402127922B993F82D20013283F82D200F
:10BAB80003EB4403CA790C7A1A715C718D784B7860
:10BAC8002D021B0105F4E06503F030032B430D78CC
